{"abi":[{"type":"constructor","inputs":[{"name":"_attacker","type":"address","internalType":"address"}],"stateMutability":"nonpayable"},{"type":"function","name":"attacker","inputs":[],"outputs":[{"name":"","type":"address","internalType":"address"}],"stateMutability":"view"},{"type":"function","name":"claimRewardsAndDistribute","inputs":[],"outputs":[],"stateMutability":"nonpayable"}],"bytecode":{"object":"0x608060405234801561000f575f5ffd5b506040516106ba3803806106ba833981810160405281019061003191906100d4565b805f5f6101000a81548173ffffffffffffffffffffffffffffffffffffffff021916908373ffffffffffffffffffffffffffffffffffffffff160217905550506100ff565b5f5ffd5b5f73ffffffffffffffffffffffffffffffffffffffff82169050919050565b5f6100a38261007a565b9050919050565b6100b381610099565b81146100bd575f5ffd5b50565b5f815190506100ce816100aa565b92915050565b5f602082840312156100e9576100e8610076565b5b5f6100f6848285016100c0565b91505092915050565b6105ae8061010c5f395ff3fe608060405234801561000f575f5ffd5b5060043610610034575f3560e01c806348eb76ee14610038578063f57a64ae14610056575b5f5ffd5b610040610060565b60405161004d919061036c565b60405180910390f35b61005e610084565b005b5f5f9054906101000a900473ffffffffffffffffffffffffffffffffffffffff1681565b5f5f5d6100a86040518060600160405280603181526020016104dc60319139610246565b5f683635c9adc5dea0000090505f3090506100da60405180606001604052806022815260200161055760229139610246565b5f8173ffffffffffffffffffffffffffffffffffffffff16837f97154a62cd5641a577e092d2eee7e39fcb3333dc595371a4303417dae0c2c0065f1c60405160240161012792919061039d565b6040516020818303038152906040527f6e553f65000000000000000000000000000000000000000000000000000000007bffffffffffffffffffffffffffffffffffffffffffffffffffffffff19166020820180517bffffffffffffffffffffffffffffffffffffffffffffffffffffffff83818316178352505050506040516101b19190610416565b5f604051808303815f865af19150503d805f81146101ea576040519150601f19603f3d011682016040523d82523d5f602084013e6101ef565b606091505b50509050801561021f5761021a60405180606001604052806027815260200161053060279139610246565b610241565b61024060405180606001604052806023815260200161050d60239139610246565b5b505050565b6102dc8160405160240161025a919061048e565b6040516020818303038152906040527f41304fac000000000000000000000000000000000000000000000000000000007bffffffffffffffffffffffffffffffffffffffffffffffffffffffff19166020820180517bffffffffffffffffffffffffffffffffffffffffffffffffffffffff83818316178352505050506102df565b50565b6102f6816102ee6102f9610318565b63ffffffff16565b50565b5f6a636f6e736f6c652e6c6f6790505f5f835160208501845afa505050565b610323819050919050565b61032b6104ae565b565b5f73ffffffffffffffffffffffffffffffffffffffff82169050919050565b5f6103568261032d565b9050919050565b6103668161034c565b82525050565b5f60208201905061037f5f83018461035d565b92915050565b5f819050919050565b61039781610385565b82525050565b5f6040820190506103b05f83018561038e565b6103bd602083018461035d565b9392505050565b5f81519050919050565b5f81905092915050565b8281835e5f83830152505050565b5f6103f0826103c4565b6103fa81856103ce565b935061040a8185602086016103d8565b80840191505092915050565b5f61042182846103e6565b915081905092915050565b5f81519050919050565b5f82825260208201905092915050565b5f601f19601f8301169050919050565b5f6104608261042c565b61046a8185610436565b935061047a8185602086016103d8565b61048381610446565b840191505092915050565b5f6020820190508181035f8301526104a68184610456565b905092915050565b7f4e487b71000000000000000000000000000000000000000000000000000000005f52605160045260245ffdfe5b4558504c4f49545d205472616e7369656e74206c6f636b20636c656172656420766961207473746f726528302c2030295b4558504c4f49545d205265656e7472616e6379206465706f736974204641494c45445b4558504c4f49545d205265656e7472616e6379206465706f73697420535543434545444544215b4558504c4f49545d2052652d656e746572696e67206465706f73697428292e2e2ea2646970667358221220f4931cefbbb12f85a929cfe410ddc7cf30b3904e7c89d171320552d52ccf51b264736f6c634300081c0033","linkReferences":{}},"methodIdentifiers":{"attacker()":"48eb76ee","claimRewardsAndDistribute()":"f57a64ae"},"id":19}