{"abi":[{"type":"constructor","inputs":[],"stateMutability":"nonpayable"},{"type":"function","name":"addClaimingLogic","inputs":[{"name":"logic","type":"address","internalType":"address"}],"outputs":[],"stateMutability":"nonpayable"},{"type":"function","name":"claimingLogics","inputs":[{"name":"","type":"uint256","internalType":"uint256"}],"outputs":[{"name":"","type":"address","internalType":"address"}],"stateMutability":"view"},{"type":"function","name":"convertToAssets","inputs":[{"name":"_shares","type":"uint256","internalType":"uint256"}],"outputs":[{"name":"","type":"uint256","internalType":"uint256"}],"stateMutability":"view"},{"type":"function","name":"curator","inputs":[],"outputs":[{"name":"","type":"address","internalType":"address"}],"stateMutability":"view"},{"type":"function","name":"deposit","inputs":[{"name":"assets","type":"uint256","internalType":"uint256"},{"name":"receiver","type":"address","internalType":"address"}],"outputs":[{"name":"sharesMinted","type":"uint256","internalType":"uint256"}],"stateMutability":"nonpayable"},{"type":"function","name":"lastTotalAssets","inputs":[],"outputs":[{"name":"","type":"uint256","internalType":"uint256"}],"stateMutability":"view"},{"type":"function","name":"seed","inputs":[{"name":"_assets","type":"uint256","internalType":"uint256"}],"outputs":[],"stateMutability":"nonpayable"},{"type":"function","name":"shares","inputs":[{"name":"","type":"address","internalType":"address"}],"outputs":[{"name":"","type":"uint256","internalType":"uint256"}],"stateMutability":"view"},{"type":"function","name":"totalAssets","inputs":[],"outputs":[{"name":"","type":"uint256","internalType":"uint256"}],"stateMutability":"view"},{"type":"function","name":"totalShares","inputs":[],"outputs":[{"name":"","type":"uint256","internalType":"uint256"}],"stateMutability":"view"},{"type":"event","name":"Deposit","inputs":[{"name":"user","type":"address","indexed":true,"internalType":"address"},{"name":"assets","type":"uint256","indexed":false,"internalType":"uint256"},{"name":"sharesMinted","type":"uint256","indexed":false,"internalType":"uint256"}],"anonymous":false},{"type":"event","name":"Reentered","inputs":[{"name":"attacker","type":"address","indexed":true,"internalType":"address"},{"name":"extraShares","type":"uint256","indexed":false,"internalType":"uint256"}],"anonymous":false}],"bytecode":{"object":"0x6080604052348015600e575f5ffd5b503360055f6101000a81548173ffffffffffffffffffffffffffffffffffffffff021916908373ffffffffffffffffffffffffffffffffffffffff160217905550610c248061005c5f395ff3fe608060405234801561000f575f5ffd5b506004361061009c575f3560e01c80636e553f65116100645780636e553f651461015a578063955648371461018a578063a4e9b4da146101a6578063ce7c2ac2146101c2578063e66f53b7146101f25761009c565b806301e1d114146100a057806307a2d13a146100be578063329f1a37146100ee5780633a98ef391461011e578063568efc071461013c575b5f5ffd5b6100a8610210565b6040516100b5919061078f565b60405180910390f35b6100d860048036038101906100d391906107d6565b610216565b6040516100e5919061078f565b60405180910390f35b610108600480360381019061010391906107d6565b61024b565b6040516101159190610840565b60405180910390f35b610126610286565b604051610133919061078f565b60405180910390f35b61014461028c565b604051610151919061078f565b60405180910390f35b610174600480360381019061016f9190610883565b610292565b604051610181919061078f565b60405180910390f35b6101a4600480360381019061019f91906107d6565b610437565b005b6101c060048036038101906101bb91906108c1565b6104c5565b005b6101dc60048036038101906101d791906108c1565b6105b7565b6040516101e9919061078f565b60405180910390f35b6101fa6105cb565b6040516102079190610840565b60405180910390f35b60025481565b5f5f60015403610228575f9050610246565b600154600254836102399190610919565b6102439190610987565b90505b919050565b6004818154811061025a575f80fd5b905f5260205f20015f915054906101000a900473ffffffffffffffffffffffffffffffffffffffff1681565b60015481565b60035481565b5f5f5f905c906101000a900460ff16156102e1576040517f08c379a00000000000000000000000000000000000000000000000000000000081526004016102d890610a11565b60405180910390fd5b60015f5f6101000a815c8160ff021916908315150217905d506103026105f0565b5f600154148061031357505f600354145b156103205782905061033e565b600354600154846103319190610919565b61033b9190610987565b90505b805f5f8473ffffffffffffffffffffffffffffffffffffffff1673ffffffffffffffffffffffffffffffffffffffff1681526020019081526020015f205f8282546103899190610a2f565b925050819055508060015f8282546103a19190610a2f565b925050819055508260025f8282546103b99190610a2f565b925050819055506002546003819055508173ffffffffffffffffffffffffffffffffffffffff167f90890809c654f11d6e72a28fa60149770a0d11ec6c92319d6ceb2bb0a4ea1a158483604051610411929190610a62565b60405180910390a25f5f5f6101000a815c8160ff021916908315150217905d5092915050565b8060025f8282546104489190610a2f565b925050819055508060015f8282546104609190610a2f565b92505081905550805f5f3373ffffffffffffffffffffffffffffffffffffffff1673ffffffffffffffffffffffffffffffffffffffff1681526020019081526020015f205f8282546104b29190610a2f565b9250508190555060025460038190555050565b60055f9054906101000a900473ffffffffffffffffffffffffffffffffffffffff1673ffffffffffffffffffffffffffffffffffffffff163373ffffffffffffffffffffffffffffffffffffffff1614610554576040517f08c379a000000000000000000000000000000000000000000000000000000000815260040161054b90610ad3565b60405180910390fd5b600481908060018154018082558091505060019003905f5260205f20015f9091909190916101000a81548173ffffffffffffffffffffffffffffffffffffffff021916908373ffffffffffffffffffffffffffffffffffffffff16021790555050565b5f602052805f5260405f205f915090505481565b60055f9054906101000a900473ffffffffffffffffffffffffffffffffffffffff1681565b5f5f90505b600480549050811015610774575f6004828154811061061757610616610af1565b5b905f5260205f20015f9054906101000a900473ffffffffffffffffffffffffffffffffffffffff1673ffffffffffffffffffffffffffffffffffffffff166040516024016040516020818303038152906040527ff57a64ae000000000000000000000000000000000000000000000000000000007bffffffffffffffffffffffffffffffffffffffffffffffffffffffff19166020820180517bffffffffffffffffffffffffffffffffffffffffffffffffffffffff83818316178352505050506040516106e59190610b70565b5f60405180830381855af49150503d805f811461071d576040519150601f19603f3d011682016040523d82523d5f602084013e610722565b606091505b5050905080610766576040517f08c379a000000000000000000000000000000000000000000000000000000000815260040161075d90610bd0565b60405180910390fd5b5080806001019150506105f5565b50565b5f819050919050565b61078981610777565b82525050565b5f6020820190506107a25f830184610780565b92915050565b5f5ffd5b6107b581610777565b81146107bf575f5ffd5b50565b5f813590506107d0816107ac565b92915050565b5f602082840312156107eb576107ea6107a8565b5b5f6107f8848285016107c2565b91505092915050565b5f73ffffffffffffffffffffffffffffffffffffffff82169050919050565b5f61082a82610801565b9050919050565b61083a81610820565b82525050565b5f6020820190506108535f830184610831565b92915050565b61086281610820565b811461086c575f5ffd5b50565b5f8135905061087d81610859565b92915050565b5f5f60408385031215610899576108986107a8565b5b5f6108a6858286016107c2565b92505060206108b78582860161086f565b9150509250929050565b5f602082840312156108d6576108d56107a8565b5b5f6108e38482850161086f565b91505092915050565b7f4e487b71000000000000000000000000000000000000000000000000000000005f52601160045260245ffd5b5f61092382610777565b915061092e83610777565b925082820261093c81610777565b91508282048414831517610953576109526108ec565b5b5092915050565b7f4e487b71000000000000000000000000000000000000000000000000000000005f52601260045260245ffd5b5f61099182610777565b915061099c83610777565b9250826109ac576109ab61095a565b5b828204905092915050565b5f82825260208201905092915050565b7f5265656e7472616e637947756172643a206c6f636b65640000000000000000005f82015250565b5f6109fb6017836109b7565b9150610a06826109c7565b602082019050919050565b5f6020820190508181035f830152610a28816109ef565b9050919050565b5f610a3982610777565b9150610a4483610777565b9250828201905080821115610a5c57610a5b6108ec565b5b92915050565b5f604082019050610a755f830185610780565b610a826020830184610780565b9392505050565b7f6f6e6c792063757261746f7200000000000000000000000000000000000000005f82015250565b5f610abd600c836109b7565b9150610ac882610a89565b602082019050919050565b5f6020820190508181035f830152610aea81610ab1565b9050919050565b7f4e487b71000000000000000000000000000000000000000000000000000000005f52603260045260245ffd5b5f81519050919050565b5f81905092915050565b8281835e5f83830152505050565b5f610b4a82610b1e565b610b548185610b28565b9350610b64818560208601610b32565b80840191505092915050565b5f610b7b8284610b40565b915081905092915050565b7f436c61696d526577617264734661696c656400000000000000000000000000005f82015250565b5f610bba6012836109b7565b9150610bc582610b86565b602082019050919050565b5f6020820190508181035f830152610be781610bae565b905091905056fea2646970667358221220293c7eb875dbea11d34b63871f15aac433fec929e764faeb21e8556b01b3b34464736f6c634300081c0033","linkReferences":{}},"methodIdentifiers":{"addClaimingLogic(address)":"a4e9b4da","claimingLogics(uint256)":"329f1a37","convertToAssets(uint256)":"07a2d13a","curator()":"e66f53b7","deposit(uint256,address)":"6e553f65","lastTotalAssets()":"568efc07","seed(uint256)":"95564837","shares(address)":"ce7c2ac2","totalAssets()":"01e1d114","totalShares()":"3a98ef39"},"id":19}