{"abi":[{"type":"function","name":"execute","inputs":[],"outputs":[],"stateMutability":"nonpayable"}],"bytecode":{"object":"0x6080604052348015600e575f5ffd5b50606a80601a5f395ff3fe6080604052348015600e575f5ffd5b50600436106026575f3560e01c80636146195414602a575b5f5ffd5b60306032565b005b56fea26469706673582212201f86a926b47271255c67523d38703b0ba034dc6ab4bf3846e10e16e02d122d9b64736f6c634300081c0033","linkReferences":{}},"methodIdentifiers":{"execute()":"61461954"},"id":20}