{"abi":[{"type":"function","name":"execute","inputs":[],"outputs":[],"stateMutability":"nonpayable"}],"bytecode":{"object":"0x6080604052348015600e575f5ffd5b506101c58061001c5f395ff3fe608060405234801561000f575f5ffd5b5060043610610029575f3560e01c8063614619541461002d575b5f5ffd5b610035610037565b005b5f5f5d5f3073ffffffffffffffffffffffffffffffffffffffff166040516024016040516020818303038152906040527fd0e30db0000000000000000000000000000000000000000000000000000000007bffffffffffffffffffffffffffffffffffffffffffffffffffffffff19166020820180517bffffffffffffffffffffffffffffffffffffffffffffffffffffffff83818316178352505050506040516100e29190610179565b5f604051808303815f865af19150503d805f811461011b576040519150601f19603f3d011682016040523d82523d5f602084013e610120565b606091505b5050905050565b5f81519050919050565b5f81905092915050565b8281835e5f83830152505050565b5f61015382610127565b61015d8185610131565b935061016d81856020860161013b565b80840191505092915050565b5f6101848284610149565b91508190509291505056fea2646970667358221220fcf596f1bd638612eaa6148f3fe717cd4f8f4c46b41c945131c474a0617481aa64736f6c634300081c0033","linkReferences":{}},"methodIdentifiers":{"execute()":"61461954"},"id":20}