{"abi":[{"type":"function","name":"deposit","inputs":[],"outputs":[],"stateMutability":"nonpayable"},{"type":"function","name":"doWork","inputs":[{"name":"logic","type":"address","internalType":"address"}],"outputs":[],"stateMutability":"nonpayable"},{"type":"function","name":"isLocked","inputs":[],"outputs":[{"name":"","type":"bool","internalType":"bool"}],"stateMutability":"view"},{"type":"function","name":"reentryCount","inputs":[],"outputs":[{"name":"","type":"uint256","internalType":"uint256"}],"stateMutability":"view"}],"bytecode":{"object":"0x6080604052348015600e575f5ffd5b506106228061001c5f395ff3fe608060405234801561000f575f5ffd5b506004361061004a575f3560e01c80633b6604291461004e57806353b381691461006a578063a4e2d63414610088578063d0e30db0146100a6575b5f5ffd5b61006860048036038101906100639190610339565b6100b0565b005b61007261025c565b60405161007f919061037c565b60405180910390f35b610090610261565b60405161009d91906103af565b60405180910390f35b6100ae610275565b005b5f5f905c906101000a900460ff16156100fe576040517f08c379a00000000000000000000000000000000000000000000000000000000081526004016100f590610422565b60405180910390fd5b60015f5f6101000a815c8160ff021916908315150217905d505f8173ffffffffffffffffffffffffffffffffffffffff166040516024016040516020818303038152906040527f61461954000000000000000000000000000000000000000000000000000000007bffffffffffffffffffffffffffffffffffffffffffffffffffffffff19166020820180517bffffffffffffffffffffffffffffffffffffffffffffffffffffffff83818316178352505050506040516101bf9190610492565b5f60405180830381855af49150503d805f81146101f7576040519150601f19603f3d011682016040523d82523d5f602084013e6101fc565b606091505b5050905080610240576040517f08c379a0000000000000000000000000000000000000000000000000000000008152600401610237906104f2565b60405180910390fd5b5f5f5f6101000a815c8160ff021916908315150217905d505050565b5f5481565b5f5f5f905c906101000a900460ff16905090565b5f5f905c906101000a900460ff16156102c3576040517f08c379a00000000000000000000000000000000000000000000000000000000081526004016102ba9061055a565b60405180910390fd5b5f5f8154809291906102d4906105a5565b9190505550565b5f5ffd5b5f73ffffffffffffffffffffffffffffffffffffffff82169050919050565b5f610308826102df565b9050919050565b610318816102fe565b8114610322575f5ffd5b50565b5f813590506103338161030f565b92915050565b5f6020828403121561034e5761034d6102db565b5b5f61035b84828501610325565b91505092915050565b5f819050919050565b61037681610364565b82525050565b5f60208201905061038f5f83018461036d565b92915050565b5f8115159050919050565b6103a981610395565b82525050565b5f6020820190506103c25f8301846103a0565b92915050565b5f82825260208201905092915050565b7f6c6f636b656400000000000000000000000000000000000000000000000000005f82015250565b5f61040c6006836103c8565b9150610417826103d8565b602082019050919050565b5f6020820190508181035f83015261043981610400565b9050919050565b5f81519050919050565b5f81905092915050565b8281835e5f83830152505050565b5f61046c82610440565b610476818561044a565b9350610486818560208601610454565b80840191505092915050565b5f61049d8284610462565b915081905092915050565b7f64656c656761746563616c6c206661696c6564000000000000000000000000005f82015250565b5f6104dc6013836103c8565b91506104e7826104a8565b602082019050919050565b5f6020820190508181035f830152610509816104d0565b9050919050565b7f6c6f636b65642d6f6e2d6465706f7369740000000000000000000000000000005f82015250565b5f6105446011836103c8565b915061054f82610510565b602082019050919050565b5f6020820190508181035f83015261057181610538565b9050919050565b7f4e487b71000000000000000000000000000000000000000000000000000000005f52601160045260245ffd5b5f6105af82610364565b91507fffffffffffffffffffffffffffffffffffffffffffffffffffffffffffffffff82036105e1576105e0610578565b5b60018201905091905056fea264697066735822122051fb605d7503439f30171b02591d037dc48110ade207394e2f4eee107d803bc464736f6c634300081c0033","linkReferences":{}},"methodIdentifiers":{"deposit()":"d0e30db0","doWork(address)":"3b660429","isLocked()":"a4e2d634","reentryCount()":"53b38169"},"id":20}